:020000040000FA
:040000005FEF00F0BE
:100008002B82FACF16F0FBCF17F00E01BDAB0FEF26
:1000180000F011EF00F01CEF00F0C5AB16EF00F098
:1000280018EF00F01CEF00F067EC03F059EF00F058
:10003800F2AC21EF00F023EF00F059EF00F0C3A974
:1000480028EF00F02AEF00F035EF00F0CBA92FEFF2
:1000580000F031EF00F035EF00F0A0EC04F059EFBC
:1000680000F0C2A93AEF00F03CEF00F047EF00F0D3
:10007800CAA941EF00F043EF00F047EF00F01FEC92
:1000880004F059EF00F0C1A74CEF00F04EEF00F07C
:1000980059EF00F0C9A753EF00F055EF00F059EF02
:1000A80000F04DEC03F059EF00F017C0FBFF16C04D
:1000B800FAFF2B92110067EF04F078EF01F0D550AA
:1000C800F00B0809D56E000EA5EC04F0000E136EB7
:1000D8000E01BD8BBFEC04F0AFEC04F0ACEC04F007
:1000E800010E0C6EA1EF01F0020E1318D8A47FEFD9
:1000F80000F081EF00F0A1EF01F0B2EC04F0000E87
:10010800136E020E0C6EA1EF01F01350D8B48FEFEE
:1001180000F091EF00F0A1EF01F019C001F01AC052
:1001280002F01BC003F01CC004F01DC00BF004AEAD
:10013800A0EF00F0A2EF00F0B4EF00F00E01278F5F
:10014800318F3B8F458F28872897328532953C859C
:100158003C95100E0F014E6F030E0C6EBBEF00F0B6
:100168000E014F8F140E0F014E6F040E0C6ED890B7
:100178000136023603360436D550F00B0509D56E24
:10018800000E136E0E01BD9BA1EF01F01450D8B400
:10019800D0EF00F0D2EF00F0A1EF01F00B50D8A49F
:1001A800D8EF00F0DAEF00F0EBEF00F0AFEC04F07E
:1001B800010E0F014E6F050E0C6E0E01279F319F29
:1001C8003B9F459F000E156EBD8B06EF01F004BEE8
:1001D800F0EF00F0F2EF00F000EF01F00E014F8FAA
:1001E800140E0F014E6F0E01279F319F3B9F459FB5
:1001F800000E156E040E0C6E0B06D89001360236F2
:1002080003360436000E146EA1EF01F01250D8B474
:1002180010EF01F012EF01F0A1EF01F00B50D8A49C
:1002280018EF01F01AEF01F026EF01F0AFEC04F03F
:10023800010E0F014E6F050E0C6E0E014F9FBD8B08
:1002480045EF01F004AE2BEF01F02DEF01F03FEF89
:1002580001F00E01278F318F3B8F458F2887289714
:10026800328532953C853C95100E0F014E6F0E017C
:100278004F9F030E0C6E0B06D890013602360336DC
:100288000436000E126EA1EF01F01350D8B44FEFF0
:1002980001F051EF01F0A1EF01F0060E0C6E000E17
:1002A800136EA1EF01F01350D8B45DEF01F05FEFCA
:1002B80001F0A1EF01F0BDEC04F0D550F00B0809F6
:1002C800D56EB2EC04F0A9EC04F0000E0C6E000E32
:1002D800136E0E01BD9B010E206EA1EF01F0206888
:1002E800000E0C6EA1EF01F00C501E6E1F6A1F501D
:1002F800000AD8B482EF01F073EF01F01E50000A33
:10030800D8B463EF00F0010AD8B478EF00F0030A1C
:10031800D8B489EF00F0010AD8B4CAEF00F0070A90
:10032800D8B40AEF01F0010AD8B449EF01F0030A82
:10033800D8B457EF01F073EF01F02050120039EFF5
:1003480002F0C1EC04F00009D8B4ADEF01F0AFEF52
:1003580001F05AEF02F0C3EC04F0106E020E1060C8
:10036800B8EF01F0BAEF01F0BCEF01F0010E116E29
:10037800B8EC04F0B5EC04F05AEF02F01004D8A47D
:10038800C8EF01F0CAEF01F0D8EF01F08690090E2E
:10039800236E1E0E226EE40EE82EFED7222EFCD708
:1003A800232EFAD700D08680105032EC03F00F6E5F
:1003B8000F50D8B4E2EF01F0E4EF01F0ECEF01F0F8
:1003C8000F50CDEC02F00F6E020E116EEEEF01F041
:1003D800000E116E000E106E5AEF02F0AA0ECDEC50
:1003E80002F00E6E0FC018F00E509DEC02F018C00F
:1003F80005F019C006F01AC007F01BC008F0055038
:10040800061007100810D8B40CEF02F00EEF02F037
:1004180012EF02F0030E116E5AEF02F0000E116E89
:100428005AEF02F005C019F006C01AF007C01BF019
:1004380008C01CF01F0E1D6E61EC00F0246E24280D
:10044800D8A429EF02F02BEF02F02FEF02F0040EF0
:10045800116E5AEF02F02404D8A435EF02F037EFFA
:1004680002F05AEF02F012EF02F01150226E236AE6
:100478002350000AD8B443EF02F012EF02F02250E2
:10048800000AD8B4A5EF01F0010AD8B4C2EF01F010
:10049800030AD8B4F2EF01F0010AD8B416EF02F05B
:1004A800070AD8B412EF02F012EF02F01200000EA1
:1004B800866E000E856E000E826E000E836E000E34
:1004C800846E060E8B6EF70E876E886889688A6858
:1004D8000F012169DF0E1C6F1469020E296FF60ED9
:1004E8000C6F000E206F000E286F100E136F000E99
:1004F8000B6F200E1B6F000E276F000E0A6F000E89
:10050800126F000E1A6F000E1F6F096911691969C1
:100518001E69070E266F0869106918691D690F0E94
:10052800256F000E0E011F6F150EE56F150EA76FD4
:1005380012001D6E1D501E6E1F6A206A216A20C09F
:1005480021F01FC020F01EC01FF01E6A1D50FF0AB8
:100558001C6E1C501E1220C021F01FC020F01EC0AF
:100568001FF01E6A18501E1220C021F01FC020F074
:100578001EC01FF01E6A1850FF0A1C6E1C501E1267
:100588001EC018F01FC019F020C01AF021C01BF0BF
:1005980012001A6E1AC018F00F0E1816183AF00E3C
:1005A80018161A380F0B0F0B18101A6E1AC018F0FD
:1005B800330E1816D8901836D89018361A40E842D4
:1005C8003F0B330B18101A6E1AC018F0550E181678
:1005D800D8901834196ED8901A30550B19101A6E15
:1005E8001A501200BBEC04F03FEC04F05BEC02F094
:1005F8005BEC04F099EC03F072EC04F0F5EC03F01A
:1006080081EC03F030EC04F00BEC04F0B1EC03F0F7
:10061800C9EC03F0DFEC03F07DEC04F04DEC04F0E2
:100628001200F6EC02F0F28EF28C0E01BD9B8E0EDB
:10063800186E090E196E000E1A6E8FEC04F0360E45
:10064800186E090E196E000E1A6E88EC04F086807A
:10065800A3EC01F02CEF03F05FEF00F0186E000E32
:10066800196E1804D8A43BEF03F03DEF03F04BEFED
:1006780003F00D2A0D50800F196E070E0D6447EF19
:1006880003F049EF03F04BEF03F0000E0D6E195025
:1006980012000E01C997255026102710D8B457EF1D
:1006A80003F059EF03F066EF03F002D866EF03F0AA
:1006B8000500FA6E2550FD6E2650FE6E2750FF6E1F
:1006C800FA50120012000E01C59B285029102A105A
:1006D800D8B471EF03F073EF03F080EF03F002D8A2
:1006E80080EF03F00500FA6E2850FD6E2950FE6E6B
:1006F8002A50FF6EFA5012001200040EB86E130E44
:10070800B76E000EB96E4D0EB56E000EB46E0E01CA
:10071800C997C1872C0E186E090E196E000E1A6E35
:1007280088EC04F0910EB66E1200800E0E01506F28
:10073800110E516F250E526F000E536F000E546F3D
:10074800020E556F080E566F000E576F000E586F49
:10075800140E4F6FCB99C3891200000E0E01286F3B
:10076800110E296F240E2A6F000E2B6F000E2C6FAE
:10077800020E2D6F080E2E6F000E2F6F000E306FB9
:10078800140E276FCA99C28912000F0E0E01466F08
:10079800210E476F220E486F230E496F000E4A6FD5
:1007A800020E4B6F080E4C6F200E4D6F000E4E6FF1
:1007B800020E456F1200000E0E013C6F110E3D6FC8
:1007C800220E3E6F000E3F6F000E406F020E416F0B
:1007D800080E426F000E436F000E446F040E3B6F0D
:1007E8001200000E0E01326F110E336F210E346F9E
:1007F800000E356F000E366F020E376F080E386F19
:10080800000E396F000E3A6F040E316F1200480E59
:10081800D56E8C0ED36E000ED26E0E01C59BBD8BAD
:100828008A0E186E090E196E000E1A6E8FEC04F0FF
:10083800000ED46E12000E01CA991550D8B427EFD5
:1008480004F029EF04F02DEF04F0010E146E2FEFE1
:1008580004F0010E156E1200010EBE6E000EBD6E84
:10086800000EBF6ED00EBB6E000EBA6E0E01C9939D
:10087800800EBC6E1200000E0E01DC6F000EDD6FE4
:10088800000EDE6F000EDF6F000EE06F000EE16FEE
:1008980012000F014C994D914D934D994D9B010EAE
:1008A8004E6F060E506F070E4F6F4C9F1200600E72
:1008B8000E01D36F000ED56F000ED76F060ED96FDD
:1008C800000ED86F120000EE01F0150EEE6AE80671
:1008D800FDE12B902B92000115EF03F0800EA16E25
:1008E800000EA06E000E9F6EAD503F0B4009AD6E1E
:1008F8001200800EA46E680EA36E400EA26EAD505C
:10090800CF0B1009AD6E120018C025F019C026F0E3
:100918001AC027F0120018C028F019C029F01AC010
:100928002AF01200010E096E010E0A6E1200010E65
:10093800096E010E0A6E12000E01CB99010E126E9D
:100948001200186E18C0D2FF12000F014C9F12003F
:100958000F014C8F12000F014C8112000F014C91B6
:100968001200000E0A6E1200000E096E1200F29AB2
:100978001200D49E1200D48E12000A5012000950A0
:0A0988001200132A1200132A1200B5
:020000040020DA
:10000000FFFFFFFFFFFFFFFFFFFFFFFFFFFFFFFF00
:10001000FFFFFFFFFFFFFFFFFFFFFFFFFFFFFFFFF0
:10002000FFFFFFFFFFFFFFFFFFFFFFFFFFFFFFFFE0
:10003000FFFFFFFFFFFFFFFFFFFFFFFFFFFFFFFFD0
:10004000FFFFFFFFFFFFFFFFFFFFFFFFFFFFFFFFC0
:10005000FFFFFFFFFFFFFFFFFFFFFFFFFFFFFFFFB0
:10006000FFFFFFFFFFFFFFFFFFFFFFFFFFFFFFFFA0
:10007000FFFFFFFFFFFFFFFFFFFFFFFFFFFFFFFF90
:10008000FFFFFFFFFFFFFFFFFFFFFFFFFFFFFFFF80
:10009000FFFFFFFFFFFFFFFFFFFFFFFFFFFFFFFF70
:1000A000FFFFFFFFFFFFFFFFFFFFFFFFFFFFFFFF60
:1000B000FFFFFFFFFFFFFFFFFFFFFFFFFFFFFFFF50
:1000C000FFFFFFFFFFFFFFFFFFFFFFFFFFFFFFFF40
:1000D000FFFFFFFFFFFFFFFFFFFFFFFFFFFFFFFF30
:1000E000FFFFFFFFFFFFFFFFFFFFFFFFFFFFFFFF20
:1000F000FFFFFFFFFFFFFFFFFFFFFFFFFFFFFFFF10
:020000040030CA
:0C000000ECFFFFFF9FFFFFFFFFFFFFFF73
:00000001FF
